:020000040800F2
:100000001813002069010008E71A000847190008C2
:10001000E51A000875020008ED2100080000000044
:10002000000000000000000000000000F11B0008BC
:100030002B09000800000000E91A0008111C000844
:100040008301000883010008830100088301000880
:100050008301000883010008830100088301000870
:1000600083010008830100082D09000883010008AE
:100070008301000883010008830100088301000850
:100080008301000883010008830100088301000840
:100090008301000883010008830100088301000830
:1000A0008301000883010008830100088301000820
:1000B0008301000883010008830100088301000810
:1000C0008301000883010008830100088301000800
:1000D00083010008830100088301000883010008F0
:1000E000830100088301000883010008000000006C
:1000F0000000000000000000000000000000000000
:1001000000000000000000008301000883010008D7
:1001100083010008830100088301000869210008A9
:10012000830100088301000883010008830100089F
:10013000830100088301000883010008830100088F
:10014000830100088301000883010008830100087F
:10015000DFF810D000F07CF8004800474522000886
:10016000AFF3008018130020064880470648004778
:10017000FEE7FEE7FEE7FEE7FEE7FEE7FEE7FEE757
:10018000FEE7FEE7891C0008510100082DE9F05F39
:100190000546002092469B468846064681464024F6
:1001A0001BE0284641464746224600F020F85346C9
:1001B0005A46C01A914110D311461846224600F003
:1001C00038F82D1A67EB01084F462246012000211E
:1001D00000F02FF817EB00094E41201EA4F1010496
:1001E000DFDC484631462A464346BDE8F09F202AD8
:1001F00004DB203A21FA02F00021704721FA02F3D1
:10020000D040C2F120029140084319467047D2B253
:1002100001E000F8012B491EFBD270470022F6E7EF
:1002200010B513460A4604461946FFF7F0FF20466C
:1002300010BD202A04DB203A00FA02F100207047AA
:100240009140C2F1200320FA03F319439040704714
:10025000064C074D06E0E06840F0010394E8070013
:1002600098471034AC42F6D3FFF776FFC822000857
:10027000E8220008FEE770B504460D4621890022F9
:10028000606800F07DFC0621204602F006F8294651
:10029000204602F00AF8204601F0FCFF05462189BD
:1002A0000122606800F06CFC284670BD70B5044601
:1002B00000222189606800F063FC1921204601F0CA
:1002C000ECFF022001F0B4FF204601F0E3FF0546F9
:1002D000204601F0DFFF05EB002085B221890122D5
:1002E000606800F04DFC284670BD70B504460022E1
:1002F0002189606800F044FC2621204601F0CDFFF2
:10030000204601F0C7FF054621890122606800F000
:1003100037FC284670BD70B506460C461546318937
:100320000022706800F02CFC2D21304601F0B5FF52
:100330002178304601F0B9FF0024304601F0AAFFD1
:1003400005F8010B641CE4B2062CF6D33189706801
:10035000BDE87040012200F013BC70B505460024D2
:1003600029890022686800F00BFC2721284601F04B
:1003700094FF29890122686800F002FC0A2001F03C
:1003800055FF284600F082F8102805D12046641C4D
:10039000E4B2C828F2D9FA2070BD70B50546002233
:1003A0002989686800F0ECFB2321284601F075FFDD
:1003B0000024E97F284601F078FF641CE4B2042C95
:1003C000F7D329896868BDE87040012200F0D8BBE6
:1003D00070B5054600222989686800F0D1FB22210A
:1003E000284601F05AFF00242819C17E284601F052
:1003F0005CFF641CE4B2042CF6D329896868BDE86C
:100400007040012200F0BCBB70B50546002229896E
:10041000686800F0B5FB2421284601F03EFF002467
:10042000281990F82310284601F03FFF641CE4B21D
:10043000042CF5D329896868BDE87040012200F0DA
:100440009FBB70B505460E460024298900226868C6
:1004500000F096FB3D21284601F01FFF3178284629
:1004600001F023FF29890122686800F089FB05203B
:1004700001F0DCFE284600F009F8102805D12046DE
:10048000641CE4B2C828F2D9FA2070BD70B50446E5
:1004900000222189606800F073FB2C21204601F0C6
:1004A000FCFE204601F0F6FE054621890122606827
:1004B00000F066FB284670BD2DE9F04107460C466A
:1004C00016461D46002E29D039890022786800F092
:1004D00057FB3C21384601F0E0FE2178384601F018
:1004E000E4FEF1B2384601F0E0FE310A384601F090
:1004F000DCFE012001F09CFE002406E0384601F0FD
:10050000C9FE05F8010B641CA4B2B442F6D33989C4
:100510007868BDE8F041012200F032BBBDE8F0810F
:1005200070B504460D4621890022606800F028FB62
:100530003B21204601F0B1FE2978204601F0B5FEAE
:10054000204601F0A7FE0546204601F0A3FE05EB7C
:10055000002085B221890122606800F011FB284645
:1005600070BD70B504460D4621890022606800F018
:1005700007FB3021204601F090FE2978204601F04B
:1005800094FE022001F054FE204601F083FE054651
:1005900021890122606800F0F3FA284670BD70B529
:1005A00005460E46002429890022686800F0E8FA12
:1005B0003521284601F071FE3178284601F075FE9C
:1005C00029890122686800F0DBFA052001F02EFE7F
:1005D0002846FFF75BFF102805D12046641CE4B2D3
:1005E000C828F2D9FA2070BD2DE9F04106460C4624
:1005F00015461F4631890022706800F0C1FA392182
:10060000304601F04AFE2178304601F04EFEF9B244
:10061000304601F04AFE390A304601F046FE002419
:1006200006E015F8011B304601F03FFE641CA4B241
:10063000BC42F6D331897068BDE8F041012200F078
:100640009FBA70B504460D4621890022606800F00B
:1006500097FA3421204601F020FE2978204601F047
:1006600024FEE97A204601F020FE21896068BDE879
:100670007040012200F084BA2DE9F04104460F4693
:1006800015461E4621890022606800F079FA522141
:10069000204601F002FE3978204601F006FE294688
:1006A000204601F002FE3146204601F0FEFD218980
:1006B0006068BDE8F041012200F062BA2DE9F04126
:1006C00004460F4615461E4621890022606800F048
:1006D00057FA5321204601F0E0FD3978204601F019
:1006E000E4FD2946204601F0E0FD3146204601F0B8
:1006F000DCFD21896068BDE8F041012200F040BACC
:1007000070B504460D4621890022606800F038FA71
:100710003321204601F0C1FD2978204601F0C5FDB6
:10072000A97D204601F0C1FDE88A010A204601F0BA
:10073000BCFD21896068BDE87040012200F020BA4C
:10074000FEB506460C4621463046FFF70AFF054631
:10075000E80703D02146304600F0E6F8680715D5D3
:1007600021463046FFF7DCFEA083002846D04FF438
:100770000071884200D9A183A28B21463046236AAA
:10078000FFF79AFE2146304600F0C6F8280716D536
:10079000607B012813D16A4621463046FFF7BBFD36
:1007A0009DF805009DF8041000EB0120A0820022B6
:1007B0006846A318815C5970521C042AF9DBE806CC
:1007C0000ED5E07A03280BD121463046FFF739FEDB
:1007D00021463046FFF7E3FE2146304600F00FF891
:1007E00068060BD521463046FFF72BFE21463046E2
:1007F000FFF7D5FE2146304600F001F8FEBD70B58A
:1008000005460E46002429890022686800F0B8F9E0
:100810003621284601F041FD3178284601F045FD9A
:1008200029890122686800F0ABF9052001F0FEFC7F
:100830002846FFF72BFE102805D12046641CE4B2A1
:10084000C828F2D9FA2070BD70B504460E46002CB7
:100850000AD0204600F045F865212046FFF70BFD41
:100860009A2803D0FA2070BDFF2070BD2046FFF704
:10087000AFFD2046FFF791FD2046FFF7C5FD20465E
:10088000FFF76BFD05460123002231462046FFF7A6
:10089000F3FE01231A4631462046FFF70FFF284694
:1008A00070BD70B505460C46002D15D0B4B121467B
:1008B0002846FFF7C6FE21462846FFF721FF2146BE
:1008C0002846FFF76CFEFA280AD021462846FFF793
:1008D00096FFFA2801D1FEE7FF2070BDFF2070BD12
:1008E000FEE701894068012200F04AB970B505466B
:1008F0000E46002D0CD06EB12846FFF7D7FC0446FB
:10090000E00603D531462846FFF71AFFE0B270BD76
:10091000FF2070BDFF2070BD888B0249088001F068
:1009200013B800001000002070477047102000F03E
:1009300023B872B6FEE7000070B5044600F028F94F
:100940000546601C02D004480078044400F020F9F9
:10095000401BA042FAD370BD000000200449098A60
:10096000814203D103490248FFF7C0BF704700002E
:10097000400000201C00002010B504490A68024213
:1009800002D00860FFF7EAFF10BD00001404014028
:100990002DE9F84F00240023DFF8C4914FF00F0831
:1009A00009F1040A0AF1040B0BF1040ED1E001274E
:1009B000A7403A40BA4275D1DFF8A8C14D68A5EB0F
:1009C0000C0665452BD00DDC032D34D005DC35B38A
:1009D000012D19D0022D2FD11BE0112D16D0122D73
:1009E0002AD119E0B6F5881F19D006DCB6F5803F8C
:1009F00015D0B6F5801F1FD111E0B6F5001F0ED03F
:100A0000B6F5041F18D10AE0CB6815E0CB681B1DB2
:100A100012E0CB6808330FE0CB680C330CE08B6836
:100A200023B1012B04D00823476105E0042303E030
:100A30000823076100E00023FF2A01D8054601E0F2
:100A400000F1040502D84FEA840603E0A4F1080689
:100A50004FEA86062F6808FA06FC27EA0C0703FA15
:100A600006F647EA06072F604D68ED0070D53E4D4B
:100A7000AE6946F00106AE61AD6905F0010500956D
:100A80003A4D24F003067719BE68A5072D0F08FA22
:100A900005FC26EA0C06DFF8D8C0604503D14FF00C
:100AA000000C17E054E0DFF8CCC0604502D14FF0F5
:100AB000010C0FE0DFF8C0C0604502D14FF0020C1E
:100AC00008E0DFF8B8C0604502D14FF0030C01E048
:100AD0004FF0040C0CFA05FC4CEA060CC7F808C0F1
:100AE0004D68ED0305D5D9F800501543C9F80050FD
:100AF00004E0D9F800509543C9F800504D68AD03A3
:100B000005D5DAF800501543CAF8005004E0DAF8C9
:100B100000509543CAF800504D68ED0205D5DBF84A
:100B200000501543CBF8005004E0DBF8005095432B
:100B3000CBF800504D68AD0205D5DEF800501543E6
:100B4000CEF8005004E0DEF800509543CEF8005097
:100B5000641C0A6832FA04F57FF429AFBDE8F88F07
:100B6000000401400000111000100240000001408C
:100B700000080140000C0140001001400014014039
:100B8000002A01D00161704709040161704700002B
:100B9000014880687047000000000020024881681A
:100BA00002781144816070470000002010B50748AA
:100BB000016841F010010160032000F08FF800206F
:100BC00000F006F800F03EF8002010BD00200240C2
:100BD00000B587B001460022372000F05FF83720CB
:100BE00000F04EF81348C16941F02001C161C069AD
:100BF00000F02000009001A902A800F02BF900F0FD
:100C00004DF940000C49B0FBF1F1491E0C480B4A6C
:100C1000026040F2E732C260416000210161816000
:100C200000F070FD10B1012007B000BD044800F0D5
:100C30008FFDF9E70010024040420F000014004011
:100C4000CC00002008B50C48816941F001018161A8
:100C5000816901F001010091C16941F08051C161D8
:100C6000C06900F0805000900449486820F0E060BE
:100C700040F00070486008BD0010024000000140D4
:100C8000002809DB00F01F0201219140400980008B
:100C900000F1E020C0F8001170470000F0B40D46EC
:100CA0000D4B1B68C3F30223C3F10704042C00D9C6
:100CB0000424191D072901D2002300E0DB1E0126B0
:100CC00006FA04F1491E294099409E40761E1640BE
:100CD0003143F0BC01F08BBA0CED00E000F00701ED
:100CE000054A10684FF6FF03184040EA0120034907
:100CF00008431060704700000CED00E00000FA05AA
:100D00002DE9F04704460D46002C17D0DFF830815E
:100D1000D8F8000000F00700A84211D2D8F800006F
:100D200020F007002843C8F80000D8F8000000F0C1
:100D30000700A84204D00120BDE8F0870120FBE7AE
:100D40002068404E810712D5400703D5706840F4F3
:100D5000E06070602078000703D5706840F4605050
:100D600070607068A16820F0F0000843706020781F
:100D7000C0072CD06068012806D0022809D031684D
:100D800089070BD40120D7E73168890306D40120F5
:100D9000D2E73168890101D40120CDE7716821F0E3
:100DA000030101437160FFF7F3FE074641F2883902
:100DB00006E0FFF7EDFEC01B484501D90320BBE765
:100DC0007068616800F00C00B0EB810FF1D1D8F8C9
:100DD000000000F00700A8420ED9D8F8000020F06B
:100DE00007002843C8F80000D8F8000000F007000A
:100DF000A84201D001209FE72078400705D5706800
:100E0000E16820F4E060084370602078000706D5B0
:100E10007068216920F4605040EAC100706000F001
:100E20004DF87168084AC1F30311515CC840074985
:100E3000086007480068FFF7CBFE00207CE7000051
:100E40000020024000100240AE2200080C000020EA
:100E5000040000200F2202600B4A536803F00303D2
:100E60004360536803F0F0038360536803F4E06366
:100E7000C360526802F46052D208026103480068FD
:100E800000F0070008607047001002400020024098
:100E900001480068704700000C00002000B5FFF713
:100EA000F7FF04494968044AC1F30221515CC84074
:100EB00000BD000000100240BE220008F0B589B05D
:100EC00027A005AC90E80E00C0680EC4089028A0CA
:100ED000D0E90032D0E90210CDE90132CDE90310AA
:100EE000274B586800F00C01042904D0082904D0CD
:100EF000244809B0F0BD2448FBE705A9C0F38342AC
:100F00008C5CC00328D5D86A01A900F00F00085CEA
:100F1000D96AC90316D5D96AC1F30312521CD96A1A
:100F2000C1F30321891CA2FB0023A1FB0416164D6B
:100F30000027A1FB050C06FB05C501FB0751FFF7C8
:100F400025F903E010496143B1FBF0F09DF8211051
:100F5000A142CED14008CCE70C486043C9E700006D
:100F6000000004050607080900000000000D00004D
:100F70000102030405060708090A0B0C0D0E0F10E9
:100F80000010024000127A0040787D0100093D0007
:100F90002DE9F84F0446002C0ED02078F84DC007FC
:100FA0005ED06868C0F3810001280BD06868C0F388
:100FB0008100022803D00CE00120BDE8F88F6868AA
:100FC000C00306D5286880034AD5A068A8BB0120C5
:100FD000F3E7A068B0F5803F11D0A8B1B0F5A02F1D
:100FE0001BD0286820F480302860286820F48020F6
:100FF0002860A06830B3FFF7CBFD06461EE02868E6
:1010000040F480302860F4E7286820F480302860BD
:10101000286820F480202860EBE7286840F48020CE
:101020002860286840F480302860E2E7FFF7B0FDD0
:10103000801B642802D90320BFE711E028688003E1
:10104000F4D50DE0FFF7A4FD064606E0FFF7A0FD8E
:10105000801B642801D90320AFE728688003F5D4FA
:101060002078C84E80074FF0010A4FF0000746D5A0
:10107000686810F00C0F07D06868C0F38100022880
:1010800012D16868C0030FD42868800704D560694E
:10109000012801D0012090E72868A16920F0F8001C
:1010A00040EAC10028602AE06069C0B1C6F800A02B
:1010B000FFF76EFD804607E0FFF76AFDA0EB080032
:1010C000022801D9032078E728688007F4D528682A
:1010D000A16920F0F80040EAC10028600FE0376005
:1010E000FFF756FD804607E0FFF752FDA0EB080032
:1010F000022801D9032060E728688007F4D420780B
:10110000000727D5A048E169A1B1C0F800A0FFF70A
:101110003FFD804607E0FFF73BFDA0EB08000228FB
:1011200001D9032049E7686A8007F4D5012000F05F
:10113000DDFC0FE00760FFF72BFD804607E0FFF7BF
:1011400027FDA0EB0800022801D9032035E7686AD3
:101150008007F4D4207840077AD54FF00008E8697A
:10116000C00009D4E86940F08050E861E86900F007
:10117000805000904FF00108DFF810B2DBF800005B
:10118000C00515D4DBF8000040F48070CBF80000F7
:10119000FFF7FEFC814607E0FFF7FAFCA0EB090031
:1011A000642801D9032008E7DBF80000C005F3D567
:1011B0002069012812D0B0B105281DD0286A20F07E
:1011C00001002862286A20F004002862206941F2A8
:1011D000883B30B3FFF7DCFC81461EE0286A40F014
:1011E00001002862F2E7286A20F001002862286ADC
:1011F00020F004002862E9E7286A40F00400286231
:10120000286A40F001002862E0E7FFF7C1FCA0EB8C
:101210000900584501D90320CFE6286A8007F4D594
:101220000FE0FFF7B5FC814608E0FFF7B1FCA0EB4B
:101230000900584502D90320BFE609E0286A800763
:10124000F3D4B8F1010F03D1E86920F08050E861D0
:10125000E06A78B36968C90309D56968C1F3810197
:10126000022904D1E96AC90301D50120A5E60228B3
:1012700008D0E86A20F48030E862B766FFF788FC9F
:10128000804641E02868C00007D5E86A616B00F03D
:10129000F000884201D001208FE6B766FFF778FCA6
:1012A000804608E0FFF774FCA0EB0800642802D930
:1012B000032082E62BE028680001F3D4E86A616B22
:1012C00020F0F0000843E862E86A216B20F47060C7
:1012D0000843E862C6F868A0FFF75AFC804607E0BA
:1012E000FFF756FCA0EB0800642801D9032064E650
:1012F00028680001F4D50AE0FFF74AFCA0EB0800DB
:10130000642801D9032058E628680001F4D4206A33
:10131000F0B36968C1F38101022950D0022804D0DA
:101320003766FFF735FC044645E03766FFF730FCCB
:10133000074606E0FFF72CFCC01B022801D903205A
:101340003BE628688001F5D4606AB0F5803F09D19A
:10135000E86A61680843E862E86AE16820F00F0023
:101360000843E862D4E909010843696821F474116B
:1013700008436860C6F860A0FFF70AFC04460FE067
:1013800000100240000042428004424200700040CF
:1013900026E0FFF7FDFB001B022801D903200CE625
:1013A00028688001F5D51BE0FFF7F2FB001B02283F
:1013B00001D9032001E628688001F5D410E0012856
:1013C0000CD06868626A00F48031914204D1A16A4D
:1013D00000F47010884203D00120EEE50120ECE516
:1013E0000020EAE570B50446002C09D0606A0025AB
:1013F00040B125616561A56294F8510040B10CE0EF
:10140000012070BD6068B0F5827FF4D0E561F2E73D
:1014100084F85050204600F03FF8022084F8510034
:101420002068016821F040010160A088218900F452
:10143000827001F404410843A18901F4006108436A
:10144000217C01F002010843217D01F001010843E4
:10145000218B01F400710843217F01F0380108431A
:1014600094F8201001F080010843218D01F400510F
:10147000084321680860A069042101EA104021683E
:1014800048602068C16921F40061C161656501207F
:1014900084F85100002070BD30B585B0002401945F
:1014A0000294039404940068184988422BD1184888
:1014B000C16941F40041C161C16901F40041009179
:1014C000816941F010018161806900F01000009095
:1014D0004FF4A050019002200290032004900D4D83
:1014E00001A92846FFF754FAE914019102940394E4
:1014F00001A92846FFF74CFA0749486840F0E06028
:1015000040F08050486005B030BD0000003C004015
:101510000010024000100140000001402DE9F84F8A
:1015200004460A9E8A4693461F4601254FF000084E
:1015300094F8500001280ED0012084F85000FFF7E5
:1015400027FB814694F85100616801280DD0B1F560
:10155000827F07D102E00220BDE8F88FA16809B9B7
:10156000042802D04FF00208C3E0BAF1000F28D0DF
:10157000BBF1000F25D0380023D094F85100042887
:1015800002D0052084F8510000206065C4F838B00E
:10159000E787A787C4F830A0E786A7862064606441
:1015A00020680168490603D4016841F040010160E8
:1015B000E068B0F5006F07D06068E8B3012F48D04D
:1015C0007DE04FF0010894E0606808B1012F39D147
:1015D000206B21680088C860206B801C2063E08E2F
:1015E000401EE0862EE02068816889070DD5E18ED7
:1015F00059B1012D09D1216B0988C160206B801C74
:101600002063E08E401EE086002520688168C907BF
:101610000BD0E18F49B1C068A16B0880A06B801C22
:10162000A063E08F401EE0870125FFF7B1FAA0EB31
:101630000900B04206D300E00BE0701C02D04FF06E
:10164000030856E0E08E0028CDD1E08F0028CAD1F3
:101650003BE0206B216800780873206B401C2063FE
:10166000E08E401EE0862AE02068816889070DD55B
:10167000E18E59B1012D09D1216B09780173206BDD
:10168000401C2063E08E401EE086002520688168B3
:10169000C9070BD0E18F49B1C068A16B0870A06B7E
:1016A000401CA063E08F401EE0870125FFF770FA21
:1016B000A0EB0900B04201D3701C11D186B1E08EBD
:1016C0000028D1D1E08F0028CED14A4631462046AD
:1016D00000F01EFA38B14FF001082020606508E0E4
:1016E0004FF0030805E0A06818B92068C168806859
:1016F00000900120503460700020207040462BE79D
:101700007047704710B50446002C03D094F83D0094
:1017100010B107E0012010BD002084F83C002046F5
:1017200000F015F8022084F83D00211D206800F02B
:1017300021FD01203D3460726070A070E070207166
:101740006071A071E07120722070002010BD7047A0
:1017500090F83D10012901D001207047022180F846
:101760003D100168CA6842F00102CA6000680F4972
:1017700088420BD0B0F1804F08D00D49884205D087
:101780000C49884202D00C49884209D1816801F095
:101790000701062908D0016841F00101016003E05A
:1017A000016841F00101016000207047002C0140F8
:1017B0000004004000080040000C0040704770B575
:1017C0000446206801694FF00005C943890716D413
:1017D000C168C943890712D4E91E0161012020773D
:1017E00020688069800703D02046FFF7E7FF05E007
:1017F000204600F09BF8204600F099F825772068F5
:101800000169C943490718D4C168C943490714D4B9
:101810006FF004010161022020772068806910F4D4
:10182000407F03D02046FFF7C9FF05E0204600F0C7
:101830007DF8204600F07BF8257720680169C943D0
:10184000090717D4C168C943090713D46FF0080109
:101850000161042020772068C069800703D02046FA
:10186000FFF7ACFF05E0204600F060F8204600F0EE
:101870005EF8257720680169C943C90618D4C16894
:10188000C943C90614D46FF0100101610820207704
:101890002068C06910F4407F03D02046FFF78EFF18
:1018A00005E0204600F042F8204600F040F8257799
:1018B00020680169C943C90708D1C168C943C9077C
:1018C00004D1891E0161204600F032F820680169C8
:1018D000C943090609D4C168C943090605D46FF094
:1018E000800101612046FFF70BFF20680169C943B1
:1018F000490609D4C168C943490605D46FF04001BF
:101900000161204600F01EF820680169C94389067C
:101910000BD4C168C943890607D46FF02001016167
:101920002046BDE87040FFF7ECBE70BD70477047C1
:1019300000680349884201D1FFF730B970470000C1
:10194000001400407047FEE710B51849184C48795C
:101950000A7940EA022322880846921FC0799342FE
:101960001DD18979FF2916D2012811D002280FD064
:1019700003280DD004280BD0052809D0062807D04D
:101980000F2805D0102803D0012100F07FF909E0CD
:1019900000F010F806E0032100F078F902E00421DD
:1019A00000F074F90020208010BD00001401002018
:1019B0001000002014494A7A0B7A42EA0323134AA2
:1019C0009380CB7A897A43EA0121D180052814D00B
:1019D00009DC01280FD002280DD0032801D00428EB
:1019E00011D100F031BA062809D00F2809D01028EB
:1019F00009D100F073BB00F06BB900F069BA00F0D8
:101A0000ABBA00F0E1BA70471401002010000020CA
:101A100070B586B0002402940394049405941B4886
:101A2000816941F004018161816901F00401019142
:101A3000816941F010018161806900F0100001901E
:101A4000134E4FF40075002229463046FFF798F8F0
:101A5000102202920F4A0392049402A90E48FEF744
:101A600097FF02950121039104910220059002A99C
:101A70003046FEF78DFF002211460A20FFF70EF9CF
:101A80000A20FFF7FDF806B070BD0000001002400C
:101A900000100140000021100008014010B510485E
:101AA0000E4901604FF48271416000218160C16084
:101AB000016141614FF4007282610822C2610162DA
:101AC000416281620A21C162FFF78CFC002803D0C9
:101AD000BDE81040FEF72DBF10BD0000003C0040E7
:101AE00074000020FEE7FEE77047000008B50749D4
:101AF0004FF4FA520968B1FBF2F14143009100BF83
:101B00000098411E0091FAD208BD00000C00002090
:101B100038B504460B46009200228021204600F092
:101B200009F828B1606D40F020006065032038BDE1
:101B3000002038BD2DE9F84304460F4691461E4665
:101B4000089DFFF725F8401B351AFFF721F880465E
:101B500026480068C0F3CB30684300903AE0701C20
:101B600038D0FFF715F8A0EB0800A84203D215B152
:101B7000009858B32BE02068416821F0E0014160F3
:101B80006068B0F5827F0BD1A068B0F5004F02D03D
:101B9000B0F5806F04D12068016821F04001016038
:101BA000A06AB0F5005F09D12068016821F40051F6
:101BB00001602068016841F4005101600120503447
:101BC0006070002020700320BDE8F8830025009895
:101BD000401E00902068806837EA000004D0002092
:101BE0004845BCD10020EFE70120F9E70C000020B8
:101BF000704703B583B04FF47A71009100680123F8
:101C000002AA04A9FFF78AFC9DF8080005B000BDF0
:101C10007047000030B593B0382105A8FEF7FEFAF2
:101C200014216846FEF7FAFA012505952804079065
:101C3000042108910A95069002240D940E904FF409
:101C4000E0100F9010944FF4C0601190402012905B
:101C500005A8FFF79DF908B1FEF76BFE0F20009075
:101C60000194002002904FF48061039104900221BE
:101C70006846FFF745F808B1FEF75BFE01480567C7
:101C800013B030BD000042427047000030B40E4B2C
:101C900003F500721C7814705C7854709C78947012
:101CA000DC78D47000241471032454719B799371EF
:101CB00040F08000D071117204480921418030BC8D
:101CC000104600F0DDBA00001401002010000020D2
:101CD0002DE9F04FADF5017D574F584B4FF4007192
:101CE000BA88FC88D87915198D427DD203F5007623
:101CF0001D7835705D7875709D78B570DD78F570FC
:101D00009B79B371F071E00838816307002B02D032
:101D100000F1010038813889307203D112B100F12D
:101D2000010038814FEAD20802F0070401A8FEF74B
:101D300075FA39894248FEF771FA00200DF1040E58
:101D4000404B3D8908E008EB00010EEB4002595C76
:101D500051709170401CC0B2A842F4D300234FF0E0
:101D6000010B3BE00EEB43004178E1404170002164
:101D7000C4F1080AF21812E090F801C05FEACC78CA
:101D800007D092F809800BFA01F948EA090882F8AD
:101D900009804FEA5C0C80F801C0491CC9B28A4531
:101DA000EADC002116E090F804C05FEACC780BD0A2
:101DB000A1EB040992F8098009F108090BFA09F965
:101DC00048EA090882F809804FEA5C0C80F804C0F0
:101DD000491CC9B2A142E6D35B1CDBB2AB42C1D302
:101DE0000020DC46B97900E021E001F00702C2F1F1
:101DF0000804711909E00B7A02EB00080CFA08FBE1
:101E000023EA0B030B72401CC0B28442F3D8ED1CD2
:101E10003D81280A30717571AD1DA9B279800848DD
:101E2000093800F02DFA0DF5017DBDE8F08F022193
:101E3000FFF72CFFF7E7000010000020140100203E
:101E40001D03002014050020F0B41E4E1E49B78863
:101E5000F588C8797A19B2F5007F2ED201F50073A2
:101E60000A781A704A785A708A789A70CA78DA7042
:101E700089799971D8714FF6FF7000EA4504348171
:101E80001C72002003F5806C09E0391803EB400256
:101E90003CF811105172090A9172401C80B2A8429C
:101EA000F3D3E41C3481200A18715C71A41DA1B223
:101EB0007180F0BC054800F0E3B9F0BC0221FFF7E7
:101EC000E5BE0000100000201401002014030020D3
:101ED000F0B41D4D1D4AAB88D079B3F5007F2ED2EA
:101EE00002F5007114780C7054784C7094788C70F2
:101EF000D478CC7014790C7154794C7194798C71BC
:101F0000C871107A0872507A4872947A8C72D27AB8
:101F1000CA72D80803F007010D4EFF2C09D0FF2A22
:101F200007D00020F0540C216980F0BC094800F073
:101F3000A7B9325C01238B401A433254F3E7F0BC5B
:101F40000221FFF7A3BE00001000002014010020B2
:101F5000140500201403002030B4184C184AA3883C
:101F6000D079B3F5007F24D202F5007115780D7099
:101F700055784D7095788D70D578CD7015790D7137
:101F800055794D7195798D71C871107A0872507AB2
:101F90004872907A8872D27ACA7201F5806140EAFA
:101FA000022021F813000C21618030BC054800F0AC
:101FB00067B930BC0221FFF769BE000010000020A5
:101FC00014010020140300202DE9F04FC1B0404B54
:101FD000404D9A88D8881118E879B1F5007F71D200
:101FE00005F500712C780C706C784C70AC788C70A6
:101FF000EC78CC7000240C7107244C71AC798C7196
:10200000C871287A0872687A4872A87A8872E87A61
:10201000C872D70802F00704297B05F58060491CC7
:10202000FEF7FCF8002005F5806A4FF0010C0DF179
:10203000040BAE4639E00EEB0003597B0BF80010A1
:102040000021C4F108053A1813E05E7B5FEAC67808
:102050000BD001F007091AF802800CFA09F909FA05
:1020600004F948EA09080AF8028076085E73491CF8
:1020700089B28D42E9DC0021524412E01BF80030A5
:1020800023FA05F6F60707D0567801F007080CFA90
:1020900008F846EA080656705B080BF80030491C41
:1020A00089B2A142EAD3401C80B29EF80C10814252
:1020B000C1D807480C21418041B00748BDE8F04F26
:1020C00000F0DEB841B00221BDE8F04FFFF7DEBD01
:1020D000100000201401002014030020F0B41F4F52
:1020E0001F4ABE88B7F806C0D07906EB0C01B1F5DF
:1020F000007F2FD202F5007113780B7053784B706C
:1021000093788B70D378CB7000230B7107234B71BE
:1021100093798B71C871107A0872507A4872907AEC
:102120008872D07AC872002001F580650AE002EB5F
:10213000400133184C7B897B44EA012125F81310B8
:10214000401C80B26045F2D30C217980F0BC054878
:1021500000F096B8F0BC0221FFF798BD10000020F7
:1021600014010020140300200148FFF728BB0000E1
:10217000CC000020F0B50268184C194D194E1A4FCA
:102180004FF0804CA04207D0604505D0A84203D054
:10219000B04201D0B84203D122F070034A681A431A
:1021A000A04207D0604505D0A84203D0B04201D07C
:1021B000B84203D122F44073CA681A434B6922F033
:1021C00080021A4302608A68C2620A688262A04280
:1021D00001D10969016301214161F0BD002C014079
:1021E0000004004000080040000C0040FEE7090722
:1021F000090E002804DB00F1E02080F8001470478D
:1022000000F00F0000F1E02080F8141D704702E09C
:1022100008C8121F08C1002AFAD170477047002071
:1022200001E001C1121F002AFBD17047FEF784BBF9
:1022300003E00021491CB429FCDB401EC0B2F8D2E7
:1022400070470000FEF7B2FCFFF7E4FCFFF7E0FB8D
:10225000FFF724FC08490948FEF7F6FA02E0C82017
:10226000FEF76AFB0548FEF740F80128F7D002495F
:102270000248FEF716FBFEE71C000020400000208D
:102280008BB20349024601F12400FEF7ADB900000C
:102290001C000020FF21FFF7ACBC10B5FFF7A9FC24
:1022A000BDE810400220FFF7C3BFFFF7A2BC00004B
:1022B00000000000000001020304060708090000F6
:1022C0000000010203040000E822000800000020D2
:1022D000740000000E2200085C2300087400002037
:1022E000A41200001E2200080100000010000000DF
:1022F000000000000024F4000000000000000000C6
:1023000000000000000000000000000000000003CA
:1023100000010000000000000000881314030020EA
:102320000000000014010020740000200010014093
:102330000002000000080140100000000000000042
:10234000000000C0A8020AC0A80101FFFFFF0000B2
:0C23500000000000000000000000000081
:04000005080001519D
:00000001FF
